{"abi":[{"type":"constructor","inputs":[{"name":"creatorFee","type":"uint24","internalType":"uint24"},{"name":"insuranceFee","type":"uint24","internalType":"uint24"},{"name":"lpFee","type":"uint24","internalType":"uint24"},{"name":"liquidationFee","type":"uint24","internalType":"uint24"}],"stateMutability":"nonpayable"},{"type":"function","name":"CREATOR_FEE","inputs":[],"outputs":[{"name":"","type":"uint24","internalType":"uint24"}],"stateMutability":"view"},{"type":"function","name":"INSURANCE_FEE","inputs":[],"outputs":[{"name":"","type":"uint24","internalType":"uint24"}],"stateMutability":"view"},{"type":"function","name":"LIQUIDATION_FEE","inputs":[],"outputs":[{"name":"","type":"uint24","internalType":"uint24"}],"stateMutability":"view"},{"type":"function","name":"LP_FEE","inputs":[],"outputs":[{"name":"","type":"uint24","internalType":"uint24"}],"stateMutability":"view"}],"bytecode":{"object":"0x610100346100aa57601f61024f38819003918201601f19168301916001600160401b038311848410176100ae578084926080946040528339810103126100aa57610048816100c2565b90610055602082016100c2565b61006d6060610066604085016100c2565b93016100c2565b9260805260a05260c05260e05260405161017c90816100d382396080518160e5015260a05181610122015260c0518160a6015260e0518160630152f35b5f80fd5b634e487b7160e01b5f52604160045260245ffd5b519062ffffff821682036100aa5756fe6080806040526004361015610012575f80fd5b5f3560e01c9081631573b57714610109575080631a7dfa9f146100ca5780635e3f27271461008b5763b182733014610048575f80fd5b34610087575f36600319011261008757602060405162ffffff7f0000000000000000000000000000000000000000000000000000000000000000168152f35b5f80fd5b34610087575f36600319011261008757602060405162ffffff7f0000000000000000000000000000000000000000000000000000000000000000168152f35b34610087575f36600319011261008757602060405162ffffff7f0000000000000000000000000000000000000000000000000000000000000000168152f35b34610087575f3660031901126100875760209062ffffff7f0000000000000000000000000000000000000000000000000000000000000000168152f3fea2646970667358221220737a5fb03892ed7e853ece9af26c260e7589e32ed243d966b63136de792ac38364736f6c63430008180033","linkReferences":{}},"methodIdentifiers":{"CREATOR_FEE()":"1a7dfa9f","INSURANCE_FEE()":"1573b577","LIQUIDATION_FEE()":"b1827330","LP_FEE()":"5e3f2727"},"id":0}