{"abi":[{"type":"function","name":"cfgs","inputs":[{"name":"perpId","type":"bytes32","internalType":"bytes32"}],"outputs":[{"name":"key","type":"tuple","internalType":"struct MockPerpManager.PoolKey","components":[{"name":"currency0","type":"address","internalType":"address"},{"name":"currency1","type":"address","internalType":"address"},{"name":"fee","type":"uint24","internalType":"uint24"},{"name":"tickSpacing","type":"int24","internalType":"int24"},{"name":"hooks","type":"address","internalType":"address"}]},{"name":"creator","type":"address","internalType":"address"},{"name":"vault","type":"address","internalType":"address"},{"name":"beacon","type":"address","internalType":"address"},{"name":"fees","type":"address","internalType":"address"},{"name":"marginRatios","type":"address","internalType":"address"},{"name":"lockupPeriod","type":"address","internalType":"address"},{"name":"sqrtPriceImpactLimit","type":"address","internalType":"address"}],"stateMutability":"view"},{"type":"function","name":"closePosition","inputs":[{"name":"params","type":"tuple","internalType":"struct MockPerpManager.ClosePositionParams","components":[{"name":"posId","type":"uint256","internalType":"uint256"},{"name":"minAmt0Out","type":"uint128","internalType":"uint128"},{"name":"minAmt1Out","type":"uint128","internalType":"uint128"},{"name":"maxAmt1In","type":"uint128","internalType":"uint128"}]}],"outputs":[],"stateMutability":"nonpayable"},{"type":"function","name":"closedPositions","inputs":[{"name":"","type":"uint256","internalType":"uint256"}],"outputs":[{"name":"","type":"bool","internalType":"bool"}],"stateMutability":"view"},{"type":"function","name":"createPerp","inputs":[{"name":"params","type":"tuple","internalType":"struct MockPerpManager.CreatePerpParams","components":[{"name":"beacon","type":"address","internalType":"address"},{"name":"fees","type":"address","internalType":"address"},{"name":"marginRatios","type":"address","internalType":"address"},{"name":"lockupPeriod","type":"address","internalType":"address"},{"name":"sqrtPriceImpactLimit","type":"address","internalType":"address"}]}],"outputs":[{"name":"perpId","type":"bytes32","internalType":"bytes32"}],"stateMutability":"nonpayable"},{"type":"function","name":"openMakerPos","inputs":[{"name":"perpId","type":"bytes32","internalType":"bytes32"},{"name":"params","type":"tuple","internalType":"struct MockPerpManager.OpenMakerPosParams","components":[{"name":"holder","type":"address","internalType":"address"},{"name":"margin","type":"uint128","internalType":"uint128"},{"name":"liquidity","type":"uint120","internalType":"uint120"},{"name":"tickLower","type":"int24","internalType":"int24"},{"name":"tickUpper","type":"int24","internalType":"int24"},{"name":"maxAmt0In","type":"uint128","internalType":"uint128"},{"name":"maxAmt1In","type":"uint128","internalType":"uint128"}]}],"outputs":[{"name":"posId","type":"uint256","internalType":"uint256"}],"stateMutability":"nonpayable"},{"type":"function","name":"openTakerPos","inputs":[{"name":"perpId","type":"bytes32","internalType":"bytes32"},{"name":"params","type":"tuple","internalType":"struct MockPerpManager.OpenTakerPosParams","components":[{"name":"holder","type":"address","internalType":"address"},{"name":"isLong","type":"bool","internalType":"bool"},{"name":"margin","type":"uint128","internalType":"uint128"},{"name":"marginRatio","type":"uint24","internalType":"uint24"},{"name":"unspecifiedAmountLimit","type":"uint128","internalType":"uint128"}]}],"outputs":[{"name":"posId","type":"uint256","internalType":"uint256"}],"stateMutability":"nonpayable"},{"type":"function","name":"positions","inputs":[{"name":"posId","type":"uint256","internalType":"uint256"}],"outputs":[{"name":"perpId","type":"bytes32","internalType":"bytes32"},{"name":"margin","type":"uint256","internalType":"uint256"},{"name":"entryPerpDelta","type":"int256","internalType":"int256"},{"name":"entryUsdDelta","type":"int256","internalType":"int256"},{"name":"entryCumlFundingX96","type":"int256","internalType":"int256"},{"name":"entryCumlBadDebtX96","type":"uint256","internalType":"uint256"},{"name":"entryCumlUtilizationX96","type":"uint256","internalType":"uint256"},{"name":"marginRatios","type":"tuple","internalType":"struct MockPerpManager.MarginRatios","components":[{"name":"min","type":"uint24","internalType":"uint24"},{"name":"max","type":"uint24","internalType":"uint24"},{"name":"liq","type":"uint24","internalType":"uint24"}]},{"name":"makerDetails","type":"tuple","internalType":"struct MockPerpManager.MakerDetails","components":[{"name":"unlockTimestamp","type":"uint32","internalType":"uint32"},{"name":"tickLower","type":"int24","internalType":"int24"},{"name":"tickUpper","type":"int24","internalType":"int24"},{"name":"liquidity","type":"uint128","internalType":"uint128"},{"name":"entryCumlFundingBelowX96","type":"int256","internalType":"int256"},{"name":"entryCumlFundingWithinX96","type":"int256","internalType":"int256"},{"name":"entryCumlFundingDivSqrtPWithinX96","type":"int256","internalType":"int256"}]}],"stateMutability":"view"},{"type":"function","name":"protocolFee","inputs":[],"outputs":[{"name":"","type":"uint24","internalType":"uint24"}],"stateMutability":"view"},{"type":"function","name":"quoteClosePosition","inputs":[{"name":"posId","type":"uint256","internalType":"uint256"}],"outputs":[{"name":"unexpectedReason","type":"bytes","internalType":"bytes"},{"name":"pnl","type":"int256","internalType":"int256"},{"name":"funding","type":"int256","internalType":"int256"},{"name":"netMargin","type":"int256","internalType":"int256"},{"name":"wasLiquidated","type":"bool","internalType":"bool"},{"name":"notional","type":"uint256","internalType":"uint256"}],"stateMutability":"view"},{"type":"function","name":"setProtocolFee","inputs":[{"name":"fee","type":"uint24","internalType":"uint24"}],"outputs":[],"stateMutability":"nonpayable"},{"type":"function","name":"setupPerp","inputs":[{"name":"perpId","type":"bytes32","internalType":"bytes32"},{"name":"key","type":"tuple","internalType":"struct MockPerpManager.PoolKey","components":[{"name":"currency0","type":"address","internalType":"address"},{"name":"currency1","type":"address","internalType":"address"},{"name":"fee","type":"uint24","internalType":"uint24"},{"name":"tickSpacing","type":"int24","internalType":"int24"},{"name":"hooks","type":"address","internalType":"address"}]},{"name":"creator","type":"address","internalType":"address"},{"name":"vault","type":"address","internalType":"address"},{"name":"beacon","type":"address","internalType":"address"},{"name":"fees","type":"address","internalType":"address"},{"name":"marginRatios","type":"address","internalType":"address"},{"name":"lockupPeriod","type":"address","internalType":"address"},{"name":"sqrtPriceImpactLimit","type":"address","internalType":"address"},{"name":"sqrtPriceX96","type":"uint256","internalType":"uint256"}],"outputs":[],"stateMutability":"nonpayable"},{"type":"function","name":"setupPosition","inputs":[{"name":"posId","type":"uint256","internalType":"uint256"},{"name":"perpId","type":"bytes32","internalType":"bytes32"},{"name":"margin","type":"uint128","internalType":"uint128"},{"name":"entryPerpDelta","type":"int256","internalType":"int256"},{"name":"entryUsdDelta","type":"int256","internalType":"int256"},{"name":"ratios","type":"tuple","internalType":"struct MockPerpManager.MarginRatios","components":[{"name":"min","type":"uint24","internalType":"uint24"},{"name":"max","type":"uint24","internalType":"uint24"},{"name":"liq","type":"uint24","internalType":"uint24"}]}],"outputs":[],"stateMutability":"nonpayable"},{"type":"function","name":"setupQuoteResult","inputs":[{"name":"posId","type":"uint256","internalType":"uint256"},{"name":"pnl","type":"int256","internalType":"int256"},{"name":"funding","type":"int256","internalType":"int256"},{"name":"netMargin","type":"int256","internalType":"int256"},{"name":"wasLiquidated","type":"bool","internalType":"bool"},{"name":"notional","type":"uint256","internalType":"uint256"}],"outputs":[],"stateMutability":"nonpayable"},{"type":"function","name":"timeWeightedAvgSqrtPriceX96","inputs":[{"name":"perpId","type":"bytes32","internalType":"bytes32"},{"name":"","type":"uint32","internalType":"uint32"}],"outputs":[{"name":"","type":"uint256","internalType":"uint256"}],"stateMutability":"view"},{"type":"event","name":"PerpCreated","inputs":[{"name":"perpId","type":"bytes32","indexed":false,"internalType":"bytes32"},{"name":"beacon","type":"address","indexed":false,"internalType":"address"},{"name":"sqrtPriceX96","type":"uint256","indexed":false,"internalType":"uint256"},{"name":"indexPriceX96","type":"uint256","indexed":false,"internalType":"uint256"}],"anonymous":false},{"type":"event","name":"PositionClosed","inputs":[{"name":"perpId","type":"bytes32","indexed":false,"internalType":"bytes32"},{"name":"sqrtPriceX96","type":"uint256","indexed":false,"internalType":"uint256"},{"name":"longOI","type":"uint256","indexed":false,"internalType":"uint256"},{"name":"shortOI","type":"uint256","indexed":false,"internalType":"uint256"},{"name":"posId","type":"uint256","indexed":false,"internalType":"uint256"},{"name":"wasMaker","type":"bool","indexed":false,"internalType":"bool"},{"name":"wasLiquidated","type":"bool","indexed":false,"internalType":"bool"},{"name":"wasPartialClose","type":"bool","indexed":false,"internalType":"bool"},{"name":"exitPerpDelta","type":"int256","indexed":false,"internalType":"int256"},{"name":"exitUsdDelta","type":"int256","indexed":false,"internalType":"int256"},{"name":"tickLower","type":"int24","indexed":false,"internalType":"int24"},{"name":"tickUpper","type":"int24","indexed":false,"internalType":"int24"},{"name":"netUsdDelta","type":"int256","indexed":false,"internalType":"int256"},{"name":"funding","type":"int256","indexed":false,"internalType":"int256"},{"name":"utilizationFee","type":"uint256","indexed":false,"internalType":"uint256"},{"name":"adl","type":"uint256","indexed":false,"internalType":"uint256"},{"name":"liquidationFee","type":"uint256","indexed":false,"internalType":"uint256"},{"name":"netMargin","type":"int256","indexed":false,"internalType":"int256"}],"anonymous":false},{"type":"event","name":"PositionOpened","inputs":[{"name":"perpId","type":"bytes32","indexed":false,"internalType":"bytes32"},{"name":"sqrtPriceX96","type":"uint256","indexed":false,"internalType":"uint256"},{"name":"longOI","type":"uint256","indexed":false,"internalType":"uint256"},{"name":"shortOI","type":"uint256","indexed":false,"internalType":"uint256"},{"name":"posId","type":"uint256","indexed":false,"internalType":"uint256"},{"name":"isMaker","type":"bool","indexed":false,"internalType":"bool"},{"name":"perpDelta","type":"int256","indexed":false,"internalType":"int256"},{"name":"usdDelta","type":"int256","indexed":false,"internalType":"int256"},{"name":"tickLower","type":"int24","indexed":false,"internalType":"int24"},{"name":"tickUpper","type":"int24","indexed":false,"internalType":"int24"}],"anonymous":false}],"bytecode":{"object":"0x6080806040523461002a5760015f556001805562ffffff196002541660025561143a908161002f8239f35b5f80fdfe60806040526004361015610011575f80fd5b5f3560e01c80630c849b70146111235780631722bf1514610e8157806332ad0e8d14610bf757806336bf4ae9146109d157806357606ca014610998578063646544a0146107e65780636acab410146106ec5780637832b0dc146106bd5780637feedaa11461068b57806399fbab881461046a578063b0e21e8a14610448578063c09e33d61461020c578063d294be071461014b5763ecf7a8ff146100b3575f80fd5b346101475760c036600319011261014757608435801515809103610147576004604051916100e0836111dd565b60243583526101416020840191604435835260408501606435815260608601918252608086019360a435855285355f52600860205260405f2096518755516001870155516002860155511515600385019060ff801983541691151516179055565b51910155005b5f80fd5b346101475760a03660031901126101475760015461016881611399565b6001556040516020810191428352604082015260408152610188816111ad565b519020805f52600460205260405f20600160ff198254161790556005602052600160601b908160405f205560043560018060a01b0381168091036101475760807fdcd936079b1594821c5562b33a56804c86f234a036d9316a6cf1f6e3ee2989149160209460405191858352868301528060408301526060820152a1604051908152f35b34610147576101c03660031901126101475760a0366023190112610147576001600160a01b0360c435818116908190036101475760e43582811680910361014757610104359183831680930361014757610124359380851680950361014757610144359281841680940361014757610164359382851680950361014757610184359483861680960361014757604051916102a583611232565b604051986102b28a6111dd565b6024358681168103610147578a5260443598868a168a03610147576020998a8c015260643562ffffff811681036101475760408c01526084358060020b81036101475760608c015260a435958787168703610147578b600997608060059e015286528a860198895260408601908152606086019182526080860192835260a0860193845260c0860194855260e08601998a526004355f5260038b5260405f20955198888a5116996bffffffffffffffffffffffff60a01b9a8b8954161788558c8a60018a01918301511681549062ffffff60a01b604085015160a01b1690606085015160b81b62ffffff60b81b169265ffffffffffff60d01b16171717905589608060028a01920151168b82541617905588600388019151168a825416179055876004870191511689825416179055868b86019151168882541617905585600685019151168782541617905584600784019151168682541617905583600883019151168582541617905501925116908254161790556004815260405f20600160ff19825416179055526101a43560405f20555f80f35b34610147575f36600319011261014757602062ffffff60025416604051908152f35b34610147576020366003190112610147575f60408051610489816111ad565b82815282602082015201525f60c06040516104a381611216565b8281528260208201528260408201528260608201528260808201528260a082015201526004355f52600660205261022060405f2060c0604051916104e6836111f9565b8054835260018101546020840152600281015460408401526003810154606084015260048101546080840152600581015460a0840152600681015482840152604051610531816111ad565b62ffffff60078301548181168352818160181c16602084015260301c16604082015260e0840152600b6040519161056783611216565b6001600160801b03600882015463ffffffff811685528060201c60020b60208601528060381c60020b604086015260501c16606084015260098101546080840152600a81015460a08401520154828201528061010084015262ffffff604084519460208101519082810151606082015160808301519060a08401519260e08a8601519501519587519b8c5260208c0152868b015260608a0152608089015260a0880152858701528281511660e08701528260208201511661010087015201511661012084015263ffffffff815116610140840152602081015160020b610160840152604081015160020b6101808401526001600160801b036060820151166101a084015260808101516101c084015260a08101516101e08401520151610200820152f35b346101475760203660031901126101475760043562ffffff81168091036101475762ffffff1960025416176002555f80f35b34610147576020366003190112610147576004355f526009602052602060ff60405f2054166040519015158152f35b3461014757610100366003190112610147576044356001600160801b0381168091036101475760603660a3190112610147576007906004355f52600660205260405f209060243582556001820155606435600282015560843560038201555f60048201555f60058201555f60068201550160a43562ffffff9081811680910361014757825462ffffff191617825560c435818116810361014757825465ffffff000000191660189190911b65ffffff0000001617825560e435908116810361014757815468ffffff000000000000191660309190911b68ffffff00000000000016179055600760205260405f20805460ff19166001179055005b34610147576020366003190112610147575f6080604051610806816111dd565b82815282602082015282604082015282606082015201526004355f52600360205261018060405f2060e06040519161083d83611232565b6040519261084a846111dd565b60018060a01b038254168452600182015460018060a01b038116602086015262ffffff8160a01c16604086015260b81c60020b606085015260018060a01b03600283015416608085015283815260018060a01b0360038301541680602083015260018060a01b0360048401541680604084015260018060a01b036005850154169081606085015260018060a01b036006860154169283608086015260018060a01b03600787015416948560a082015260018060a01b03600888015416968760c0830152600960018060a01b039101541697889101526040519760018060a01b03815116895260018060a01b0360208201511660208a015262ffffff60408201511660408a0152606081015160020b60608a0152608060018060a01b0391015116608089015260a088015260c087015260e0860152610100850152610120840152610140830152610160820152f35b346101475760403660031901126101475760243563ffffffff811603610147576004355f526005602052602060405f2054604051908152f35b3461014757610100806003193601126101475760043560e036602319011261014757805f5260209160048352610a0d60ff60405f205416611357565b5f5491610a1983611399565b5f55825f526006845260405f208181556001600160801b0390600182610a3d6113bd565b16910155610ad4604051610a50816111ad565b620186a08152868101620f424081526040820161c3508152875f5260068952610ab0600760405f20019362ffffff93848092511662ffffff198754161786555116849065ffffff00000082549160181b169065ffffff0000001916179055565b51825468ffffff0000000000001916911660301b68ffffff00000000000016179055565b6007855260405f20805460ff19166001179055600481610af26113bd565b1691610afc6113bd565b16610b6060405193610b0d856111dd565b5f8552888501905f82526040860190815260608601915f835260808701948552895f5260088b5260405f2096518755516001870155516002860155511515600385019060ff801983541691151516179055565b51910155805f526005845260405f2054906084358060020b8091036101475760a435908160020b809203610147577f539406433da82f2f8d907db1339f4c27bcde03e8c95053bda5aca4ea7533b8b09461014094604051948552888501526103e88060408601526060850152866080850152600160a08501525f60c08501525f60e0850152830152610120820152a1604051908152f35b3461014757608036600319011261014757600435805f5260206007815260ff60405f20541615610e425781610240917f992fd4768aecc604adbc53b59e87a6d193226e9001b2086cc5f3b4addcf82fd5935f526006815260405f2060405190610c5f826111f9565b80548252600181015483830152600281015490604083019182526003810154916060840192835260048201546080850152600582015460a0850152600682015460c0850152604051610cb0816111ad565b600783015462ffffff908181168352818160181c168884015260301c16604082015260e0850152600b60405192610ce684611216565b6001600160801b03600882015463ffffffff8116865280891c60020b898701528060381c60020b604087015260501c16606085015260098101546080850152600a81015460a0850152015460c08301526101009182850152855f526008855260405f209560405194610d57866111dd565b87548652600188015487870152600288015495604081019687526080600460ff60038c0154169a606084019b15158c520154910152815f526009875260405f2060ff19906001828254161790556007885260405f209081541690555196875f526005875260405f205490511515925194519551966040519889528801526103e8806040890152606088015260808701525f60a087015260c08601525f60e0860152840152610120830152620d89b319610140830152620d89b46101608301525f6101808301525f6101a08301525f6101c08301525f6101e08301525f610200830152610220820152a1005b60405162461bcd60e51b81526020600482015260176024820152761c1bdcda5d1a5bdb88191bd95cc81b9bdd08195e1a5cdd604a1b6044820152606490fd5b346101475760c03660031901126101475760043560a036602319011261014757805f5260209060048252610ebb60ff60405f205416611357565b5f5490610ec782611399565b5f556001600160801b0380610eda6113a7565b1691620f42408084029380850482149015171561110f5762ffffff9081610eff6113d3565b169182156110fb576004610140956110018a6003967f539406433da82f2f8d907db1339f4c27bcde03e8c95053bda5aca4ea7533b8b09a0494610f406113e5565b156110e7578b610ab08288995b610f556113e5565b156110dd578c610f648b6113f4565b9c8d915b865f526006895260405f209081558a610f7f6113a7565b1660018201558d600282015501556006610f976113d3565b96627fffff610fa46113d3565b60011c16958460405199610fb78b6111ad565b168952818901938452604089019687525f525281600760405f200196511662ffffff198754161786555116849065ffffff00000082549160181b169065ffffff0000001916179055565b60078a5260405f20805460ff1916600117905561101c6113a7565b1691611081896040519461102f866111dd565b5f86528c6008818801915f83526040890193845260608901945f865260808a019788525f525260405f2096518755516001870155516002860155511515600385019060ff801983541691151516179055565b51910155825f526005875260405f2054604051938452878401526103e880604085015260608401528560808401525f60a084015260c083015260e0820152620d89b319610100820152620d89b4610120820152a1604051908152f35b8c8a9c8d91610f68565b8b610ab0826110f5896113f4565b99610f4d565b634e487b7160e01b5f52601260045260245ffd5b634e487b7160e01b5f52601160045260245ffd5b34610147576020806003193601126101475761114060043561124f565b9160409693965196879560c087528751958660c08901525f5b87811061119657505060e097505f8887890101526020870152604086015260608501521515608084015260a0830152601f80199101168101030190f35b808a018201518b820160e001528a98508101611159565b6060810190811067ffffffffffffffff8211176111c957604052565b634e487b7160e01b5f52604160045260245ffd5b60a0810190811067ffffffffffffffff8211176111c957604052565b610120810190811067ffffffffffffffff8211176111c957604052565b60e0810190811067ffffffffffffffff8211176111c957604052565b610100810190811067ffffffffffffffff8211176111c957604052565b90815f52600760205260409160ff835f205416156112ea575f526008602052815f20825161127c816111dd565b8154815260018201549360208201948552600283015493818301948552600460ff6003860154169460608501951515865201549260808101938452825192602084019084821067ffffffffffffffff8311176111c957525f8352519551945193511515925191959493929190565b50815162461bcd60e51b602080830191909152602482015260176044820152761c1bdcda5d1a5bdb88191bd95cc81b9bdd08195e1a5cdd604a1b6064808301919091528152909160a082019067ffffffffffffffff8211838310176111c95752905f905f905f905f905f90565b1561135e57565b60405162461bcd60e51b81526020600482015260136024820152721c195c9c08191bd95cc81b9bdd08195e1a5cdd606a1b6044820152606490fd5b5f19811461110f5760010190565b6064356001600160801b03811681036101475790565b6044356001600160801b03811681036101475790565b60843562ffffff811681036101475790565b60443580151581036101475790565b600160ff1b811461110f575f039056fea2646970667358221220fb5a39d0dbba90007082710c459c3eb3b5f645315c1d40f3e9cba61179d16cd864736f6c63430008180033","linkReferences":{}},"methodIdentifiers":{"cfgs(bytes32)":"646544a0","closePosition((uint256,uint128,uint128,uint128))":"32ad0e8d","closedPositions(uint256)":"7832b0dc","createPerp((address,address,address,address,address))":"d294be07","openMakerPos(bytes32,(address,uint128,uint120,int24,int24,uint128,uint128))":"36bf4ae9","openTakerPos(bytes32,(address,bool,uint128,uint24,uint128))":"1722bf15","positions(uint256)":"99fbab88","protocolFee()":"b0e21e8a","quoteClosePosition(uint256)":"0c849b70","setProtocolFee(uint24)":"7feedaa1","setupPerp(bytes32,(address,address,uint24,int24,address),address,address,address,address,address,address,address,uint256)":"c09e33d6","setupPosition(uint256,bytes32,uint128,int256,int256,(uint24,uint24,uint24))":"6acab410","setupQuoteResult(uint256,int256,int256,int256,bool,uint256)":"ecf7a8ff","timeWeightedAvgSqrtPriceX96(bytes32,uint32)":"57606ca0"},"id":2}