{"abi":[{"type":"constructor","inputs":[{"name":"minTaker","type":"uint24","internalType":"uint24"},{"name":"maxTaker","type":"uint24","internalType":"uint24"},{"name":"liqTaker","type":"uint24","internalType":"uint24"},{"name":"minMaker","type":"uint24","internalType":"uint24"},{"name":"maxMaker","type":"uint24","internalType":"uint24"},{"name":"liqMaker","type":"uint24","internalType":"uint24"}],"stateMutability":"nonpayable"},{"type":"function","name":"LIQUIDATION_MAKER_RATIO","inputs":[],"outputs":[{"name":"","type":"uint24","internalType":"uint24"}],"stateMutability":"view"},{"type":"function","name":"LIQUIDATION_TAKER_RATIO","inputs":[],"outputs":[{"name":"","type":"uint24","internalType":"uint24"}],"stateMutability":"view"},{"type":"function","name":"MAX_MAKER_RATIO","inputs":[],"outputs":[{"name":"","type":"uint24","internalType":"uint24"}],"stateMutability":"view"},{"type":"function","name":"MAX_TAKER_RATIO","inputs":[],"outputs":[{"name":"","type":"uint24","internalType":"uint24"}],"stateMutability":"view"},{"type":"function","name":"MIN_MAKER_RATIO","inputs":[],"outputs":[{"name":"","type":"uint24","internalType":"uint24"}],"stateMutability":"view"},{"type":"function","name":"MIN_TAKER_RATIO","inputs":[],"outputs":[{"name":"","type":"uint24","internalType":"uint24"}],"stateMutability":"view"}],"bytecode":{"object":"0x6080346100fa57601f61029338819003918201601f19168301916001600160401b038311848410176100fe5780849260c0946040528339810103126100fa5761004781610112565b906effffff00000000000000000000000061006460208301610112565b6bffffff00000000000000000061007d60408501610112565b68ffffff00000000000061009360608701610112565b9365ffffff0000006100b360a06100ac60808b01610112565b9901610112565b62ffffff5f54918160781b9060781b169a169060018060901b031916179160181b16179160301b16179160481b16179160601b1617175f5560405161017090816101238239f35b5f80fd5b634e487b7160e01b5f52604160045260245ffd5b519062ffffff821682036100fa5756fe60806040908082526004361015610014575f80fd5b5f3560e01c9081633726ff0214610119575080633f9fadd1146100f45780638621f0f1146100d2578063b17e1d8e146100ad578063b8a1967e146100885763f547274f14610060575f80fd5b34610084575f3660031901126100845760209062ffffff5f5460181c169051908152f35b5f80fd5b5034610084575f3660031901126100845760209062ffffff5f5460781c169051908152f35b5034610084575f3660031901126100845760209062ffffff5f5460601c169051908152f35b5034610084575f3660031901126100845760209062ffffff5f54169051908152f35b5034610084575f3660031901126100845760209062ffffff5f5460301c169051908152f35b34610084575f3660031901126100845760209062ffffff5f5460481c168152f3fea2646970667358221220719a1ed15f84ed3792b80c2d01b216d57233165b60ea90f96fd3e06b5e14a1f464736f6c63430008180033","linkReferences":{}},"methodIdentifiers":{"LIQUIDATION_MAKER_RATIO()":"b8a1967e","LIQUIDATION_TAKER_RATIO()":"3f9fadd1","MAX_MAKER_RATIO()":"b17e1d8e","MAX_TAKER_RATIO()":"f547274f","MIN_MAKER_RATIO()":"3726ff02","MIN_TAKER_RATIO()":"8621f0f1"},"id":1}